{
  "_format": "hh-sol-artifact-1",
  "contractName": "EthEcho",
  "sourceName": "contracts/EthEcho.sol",
  "abi": [
    {
      "inputs": [],
      "stateMutability": "nonpayable",
      "type": "constructor"
    },
    {
      "anonymous": false,
      "inputs": [
        {
          "indexed": true,
          "internalType": "address",
          "name": "from",
          "type": "address"
        },
        {
          "indexed": false,
          "internalType": "uint256",
          "name": "timestamp",
          "type": "uint256"
        },
        {
          "indexed": false,
          "internalType": "string",
          "name": "message",
          "type": "string"
        }
      ],
      "name": "NewEcho",
      "type": "event"
    },
    {
      "inputs": [],
      "name": "getLatestEcho",
      "outputs": [
        {
          "components": [
            {
              "internalType": "address",
              "name": "echoer",
              "type": "address"
            },
            {
              "internalType": "string",
              "name": "message",
              "type": "string"
            },
            {
              "internalType": "uint256",
              "name": "timestamp",
              "type": "uint256"
            }
          ],
          "internalType": "struct EthEcho.Echo",
          "name": "",
          "type": "tuple"
        }
      ],
      "stateMutability": "view",
      "type": "function"
    },
    {
      "inputs": [],
      "name": "getTotalEchoes",
      "outputs": [
        {
          "internalType": "uint256",
          "name": "",
          "type": "uint256"
        }
      ],
      "stateMutability": "view",
      "type": "function"
    },
    {
      "inputs": [
        {
          "internalType": "string",
          "name": "_message",
          "type": "string"
        }
      ],
      "name": "writeEcho",
      "outputs": [],
      "stateMutability": "nonpayable",
      "type": "function"
    }
  ],
  "bytecode": "0x60806040523480156200001157600080fd5b50620000586040518060400160405280601981526020017f4574684563686f202d20536d61727420436f6e747261637421000000000000008152506200005e60201b60201c565b62000258565b620000fe8160405160240162000075919062000205565b6040516020818303038152906040527f41304fac000000000000000000000000000000000000000000000000000000007bffffffffffffffffffffffffffffffffffffffffffffffffffffffff19166020820180517bffffffffffffffffffffffffffffffffffffffffffffffffffffffff83818316178352505050506200010160201b60201c565b50565b6200012781620001226200012a60201b6200033e176200014b60201b60201c565b60201c565b50565b60006a636f6e736f6c652e6c6f679050600080835160208501845afa505050565b6200015f60201b620004bf17819050919050565b6200016962000229565b565b600081519050919050565b600082825260208201905092915050565b60005b83811015620001a75780820151818401526020810190506200018a565b60008484015250505050565b6000601f19601f8301169050919050565b6000620001d1826200016b565b620001dd818562000176565b9350620001ef81856020860162000187565b620001fa81620001b3565b840191505092915050565b60006020820190508181036000830152620002218184620001c4565b905092915050565b7f4e487b7100000000000000000000000000000000000000000000000000000000600052605160045260246000fd5b610cbc80620002686000396000f3fe608060405234801561001057600080fd5b50600436106100415760003560e01c806305eefb5714610046578063b599efad14610062578063f972b37214610080575b600080fd5b610060600480360381019061005b919061065a565b61009e565b005b61006a6101e7565b60405161007791906107cc565b60405180910390f35b6100886102f3565b60405161009591906107fd565b60405180910390f35b60016000808282546100b09190610847565b925050819055506100f76040518060400160405280601781526020017f2573206563686f656420772f206d657373616765202573000000000000000000815250338361035f565b60405180606001604052803373ffffffffffffffffffffffffffffffffffffffff16815260200182815260200142815250600160008201518160000160006101000a81548173ffffffffffffffffffffffffffffffffffffffff021916908373ffffffffffffffffffffffffffffffffffffffff16021790555060208201518160010190816101869190610a87565b50604082015181600201559050503373ffffffffffffffffffffffffffffffffffffffff167fcc1768b2bb333c251e77c649cdb86a181eea2c913d04f3db035b7bdf1e2b7f4542836040516101dc929190610ba3565b60405180910390a250565b6101ef6104c9565b60016040518060600160405290816000820160009054906101000a900473ffffffffffffffffffffffffffffffffffffffff1673ffffffffffffffffffffffffffffffffffffffff1673ffffffffffffffffffffffffffffffffffffffff168152602001600182018054610262906108aa565b80601f016020809104026020016040519081016040528092919081815260200182805461028e906108aa565b80156102db5780601f106102b0576101008083540402835291602001916102db565b820191906000526020600020905b8154815290600101906020018083116102be57829003601f168201915b50505050508152602001600282015481525050905090565b60006103366040518060400160405280601881526020017f5765206861766520256420746f74616c206563686f65732100000000000000008152506000546103fe565b600054905090565b60006a636f6e736f6c652e6c6f679050600080835160208501845afa505050565b6103f983838360405160240161037793929190610be2565b6040516020818303038152906040527fe0e9ad4f000000000000000000000000000000000000000000000000000000007bffffffffffffffffffffffffffffffffffffffffffffffffffffffff19166020820180517bffffffffffffffffffffffffffffffffffffffffffffffffffffffff838183161783525050505061049a565b505050565b6104968282604051602401610414929190610c27565b6040516020818303038152906040527fb60e72cc000000000000000000000000000000000000000000000000000000007bffffffffffffffffffffffffffffffffffffffffffffffffffffffff19166020820180517bffffffffffffffffffffffffffffffffffffffffffffffffffffffff838183161783525050505061049a565b5050565b6104b1816104a961033e6104b4565b63ffffffff16565b50565b6104bf819050919050565b6104c7610c57565b565b6040518060600160405280600073ffffffffffffffffffffffffffffffffffffffff16815260200160608152602001600081525090565b6000604051905090565b600080fd5b600080fd5b600080fd5b600080fd5b6000601f19601f8301169050919050565b7f4e487b7100000000000000000000000000000000000000000000000000000000600052604160045260246000fd5b6105678261051e565b810181811067ffffffffffffffff821117156105865761058561052f565b5b80604052505050565b6000610599610500565b90506105a5828261055e565b919050565b600067ffffffffffffffff8211156105c5576105c461052f565b5b6105ce8261051e565b9050602081019050919050565b82818337600083830152505050565b60006105fd6105f8846105aa565b61058f565b90508281526020810184848401111561061957610618610519565b5b6106248482856105db565b509392505050565b600082601f83011261064157610640610514565b5b81356106518482602086016105ea565b91505092915050565b6000602082840312156106705761066f61050a565b5b600082013567ffffffffffffffff81111561068e5761068d61050f565b5b61069a8482850161062c565b91505092915050565b600073ffffffffffffffffffffffffffffffffffffffff82169050919050565b60006106ce826106a3565b9050919050565b6106de816106c3565b82525050565b600081519050919050565b600082825260208201905092915050565b60005b8381101561071e578082015181840152602081019050610703565b60008484015250505050565b6000610735826106e4565b61073f81856106ef565b935061074f818560208601610700565b6107588161051e565b840191505092915050565b6000819050919050565b61077681610763565b82525050565b600060608301600083015161079460008601826106d5565b50602083015184820360208601526107ac828261072a565b91505060408301516107c1604086018261076d565b508091505092915050565b600060208201905081810360008301526107e6818461077c565b905092915050565b6107f781610763565b82525050565b600060208201905061081260008301846107ee565b92915050565b7f4e487b7100000000000000000000000000000000000000000000000000000000600052601160045260246000fd5b600061085282610763565b915061085d83610763565b925082820190508082111561087557610874610818565b5b92915050565b7f4e487b7100000000000000000000000000000000000000000000000000000000600052602260045260246000fd5b600060028204905060018216806108c257607f821691505b6020821081036108d5576108d461087b565b5b50919050565b60008190508160005260206000209050919050565b60006020601f8301049050919050565b600082821b905092915050565b60006008830261093d7fffffffffffffffffffffffffffffffffffffffffffffffffffffffffffffffff82610900565b6109478683610900565b95508019841693508086168417925050509392505050565b6000819050919050565b600061098461097f61097a84610763565b61095f565b610763565b9050919050565b6000819050919050565b61099e83610969565b6109b26109aa8261098b565b84845461090d565b825550505050565b600090565b6109c76109ba565b6109d2818484610995565b505050565b5b818110156109f6576109eb6000826109bf565b6001810190506109d8565b5050565b601f821115610a3b57610a0c816108db565b610a15846108f0565b81016020851015610a24578190505b610a38610a30856108f0565b8301826109d7565b50505b505050565b600082821c905092915050565b6000610a5e60001984600802610a40565b1980831691505092915050565b6000610a778383610a4d565b9150826002028217905092915050565b610a90826106e4565b67ffffffffffffffff811115610aa957610aa861052f565b5b610ab382546108aa565b610abe8282856109fa565b600060209050601f831160018114610af15760008415610adf578287015190505b610ae98582610a6b565b865550610b51565b601f198416610aff866108db565b60005b82811015610b2757848901518255600182019150602085019450602081019050610b02565b86831015610b445784890151610b40601f891682610a4d565b8355505b6001600288020188555050505b505050505050565b600082825260208201905092915050565b6000610b75826106e4565b610b7f8185610b59565b9350610b8f818560208601610700565b610b988161051e565b840191505092915050565b6000604082019050610bb860008301856107ee565b8181036020830152610bca8184610b6a565b90509392505050565b610bdc816106c3565b82525050565b60006060820190508181036000830152610bfc8186610b6a565b9050610c0b6020830185610bd3565b8181036040830152610c1d8184610b6a565b9050949350505050565b60006040820190508181036000830152610c418185610b6a565b9050610c5060208301846107ee565b9392505050565b7f4e487b7100000000000000000000000000000000000000000000000000000000600052605160045260246000fdfea2646970667358221220d38843029b8afc29b7f06636abb23a8d584ecc82b4cef9be855b4ec7f831e52c64736f6c63430008130033",
  "linkReferences": {},
  "deployedLinkReferences": {}
}