{
  "_format": "hh-sol-artifact-1",
  "contractName": "EthEcho",
  "sourceName": "contracts/EthEcho.sol",
  "abi": [
    {
      "inputs": [],
      "stateMutability": "nonpayable",
      "type": "constructor"
    },
    {
      "anonymous": false,
      "inputs": [
        {
          "indexed": true,
          "internalType": "address",
          "name": "from",
          "type": "address"
        },
        {
          "indexed": false,
          "internalType": "uint256",
          "name": "timestamp",
          "type": "uint256"
        },
        {
          "indexed": false,
          "internalType": "string",
          "name": "message",
          "type": "string"
        }
      ],
      "name": "NewEcho",
      "type": "event"
    },
    {
      "inputs": [],
      "name": "getAllEchoes",
      "outputs": [
        {
          "components": [
            {
              "internalType": "address",
              "name": "echoSender",
              "type": "address"
            },
            {
              "internalType": "string",
              "name": "message",
              "type": "string"
            },
            {
              "internalType": "uint256",
              "name": "timestamp",
              "type": "uint256"
            }
          ],
          "internalType": "struct EthEcho.Echo[]",
          "name": "",
          "type": "tuple[]"
        }
      ],
      "stateMutability": "view",
      "type": "function"
    },
    {
      "inputs": [],
      "name": "getTotalEchoes",
      "outputs": [
        {
          "internalType": "uint256",
          "name": "",
          "type": "uint256"
        }
      ],
      "stateMutability": "view",
      "type": "function"
    },
    {
      "inputs": [
        {
          "internalType": "string",
          "name": "_message",
          "type": "string"
        }
      ],
      "name": "writeEcho",
      "outputs": [],
      "stateMutability": "nonpayable",
      "type": "function"
    }
  ],
  "bytecode": "0x60806040523480156200001157600080fd5b50620000586040518060400160405280601981526020017f4574684563686f202d20536d61727420436f6e747261637421000000000000008152506200005e60201b60201c565b62000258565b620000fe8160405160240162000075919062000205565b6040516020818303038152906040527f41304fac000000000000000000000000000000000000000000000000000000007bffffffffffffffffffffffffffffffffffffffffffffffffffffffff19166020820180517bffffffffffffffffffffffffffffffffffffffffffffffffffffffff83818316178352505050506200010160201b60201c565b50565b6200012781620001226200012a60201b620003ab176200014b60201b60201c565b60201c565b50565b60006a636f6e736f6c652e6c6f679050600080835160208501845afa505050565b6200015f60201b6200052c17819050919050565b6200016962000229565b565b600081519050919050565b600082825260208201905092915050565b60005b83811015620001a75780820151818401526020810190506200018a565b60008484015250505050565b6000601f19601f8301169050919050565b6000620001d1826200016b565b620001dd818562000176565b9350620001ef81856020860162000187565b620001fa81620001b3565b840191505092915050565b60006020820190508181036000830152620002218184620001c4565b905092915050565b7f4e487b7100000000000000000000000000000000000000000000000000000000600052605160045260246000fd5b610db480620002686000396000f3fe608060405234801561001057600080fd5b50600436106100415760003560e01c806305eefb5714610046578063f972b37214610062578063fc15401714610080575b600080fd5b610060600480360381019061005b9190610690565b61009e565b005b61006a61020f565b60405161007791906106f2565b60405180910390f35b61008861025a565b60405161009591906108ee565b60405180910390f35b60016000808282546100b0919061093f565b925050819055506100f76040518060400160405280601781526020017f2573206563686f656420772f206d65737361676520257300000000000000000081525033836103cc565b600160405180606001604052803373ffffffffffffffffffffffffffffffffffffffff16815260200183815260200142815250908060018154018082558091505060019003906000526020600020906003020160009091909190915060008201518160000160006101000a81548173ffffffffffffffffffffffffffffffffffffffff021916908373ffffffffffffffffffffffffffffffffffffffff16021790555060208201518160010190816101af9190610b7f565b506040820151816002015550503373ffffffffffffffffffffffffffffffffffffffff167fcc1768b2bb333c251e77c649cdb86a181eea2c913d04f3db035b7bdf1e2b7f454283604051610204929190610c9b565b60405180910390a250565b60006102526040518060400160405280601881526020017f5765206861766520256420746f74616c206563686f657321000000000000000081525060005461046b565b600054905090565b60606001805480602002602001604051908101604052809291908181526020016000905b828210156103a257838290600052602060002090600302016040518060600160405290816000820160009054906101000a900473ffffffffffffffffffffffffffffffffffffffff1673ffffffffffffffffffffffffffffffffffffffff1673ffffffffffffffffffffffffffffffffffffffff168152602001600182018054610307906109a2565b80601f0160208091040260200160405190810160405280929190818152602001828054610333906109a2565b80156103805780601f1061035557610100808354040283529160200191610380565b820191906000526020600020905b81548152906001019060200180831161036357829003601f168201915b505050505081526020016002820154815250508152602001906001019061027e565b50505050905090565b60006a636f6e736f6c652e6c6f679050600080835160208501845afa505050565b6104668383836040516024016103e493929190610cda565b6040516020818303038152906040527fe0e9ad4f000000000000000000000000000000000000000000000000000000007bffffffffffffffffffffffffffffffffffffffffffffffffffffffff19166020820180517bffffffffffffffffffffffffffffffffffffffffffffffffffffffff8381831617835250505050610507565b505050565b6105038282604051602401610481929190610d1f565b6040516020818303038152906040527fb60e72cc000000000000000000000000000000000000000000000000000000007bffffffffffffffffffffffffffffffffffffffffffffffffffffffff19166020820180517bffffffffffffffffffffffffffffffffffffffffffffffffffffffff8381831617835250505050610507565b5050565b61051e816105166103ab610521565b63ffffffff16565b50565b61052c819050919050565b610534610d4f565b565b6000604051905090565b600080fd5b600080fd5b600080fd5b600080fd5b6000601f19601f8301169050919050565b7f4e487b7100000000000000000000000000000000000000000000000000000000600052604160045260246000fd5b61059d82610554565b810181811067ffffffffffffffff821117156105bc576105bb610565565b5b80604052505050565b60006105cf610536565b90506105db8282610594565b919050565b600067ffffffffffffffff8211156105fb576105fa610565565b5b61060482610554565b9050602081019050919050565b82818337600083830152505050565b600061063361062e846105e0565b6105c5565b90508281526020810184848401111561064f5761064e61054f565b5b61065a848285610611565b509392505050565b600082601f8301126106775761067661054a565b5b8135610687848260208601610620565b91505092915050565b6000602082840312156106a6576106a5610540565b5b600082013567ffffffffffffffff8111156106c4576106c3610545565b5b6106d084828501610662565b91505092915050565b6000819050919050565b6106ec816106d9565b82525050565b600060208201905061070760008301846106e3565b92915050565b600081519050919050565b600082825260208201905092915050565b6000819050602082019050919050565b600073ffffffffffffffffffffffffffffffffffffffff82169050919050565b600061076482610739565b9050919050565b61077481610759565b82525050565b600081519050919050565b600082825260208201905092915050565b60005b838110156107b4578082015181840152602081019050610799565b60008484015250505050565b60006107cb8261077a565b6107d58185610785565b93506107e5818560208601610796565b6107ee81610554565b840191505092915050565b610802816106d9565b82525050565b6000606083016000830151610820600086018261076b565b506020830151848203602086015261083882826107c0565b915050604083015161084d60408601826107f9565b508091505092915050565b60006108648383610808565b905092915050565b6000602082019050919050565b60006108848261070d565b61088e8185610718565b9350836020820285016108a085610729565b8060005b858110156108dc57848403895281516108bd8582610858565b94506108c88361086c565b925060208a019950506001810190506108a4565b50829750879550505050505092915050565b600060208201905081810360008301526109088184610879565b905092915050565b7f4e487b7100000000000000000000000000000000000000000000000000000000600052601160045260246000fd5b600061094a826106d9565b9150610955836106d9565b925082820190508082111561096d5761096c610910565b5b92915050565b7f4e487b7100000000000000000000000000000000000000000000000000000000600052602260045260246000fd5b600060028204905060018216806109ba57607f821691505b6020821081036109cd576109cc610973565b5b50919050565b60008190508160005260206000209050919050565b60006020601f8301049050919050565b600082821b905092915050565b600060088302610a357fffffffffffffffffffffffffffffffffffffffffffffffffffffffffffffffff826109f8565b610a3f86836109f8565b95508019841693508086168417925050509392505050565b6000819050919050565b6000610a7c610a77610a72846106d9565b610a57565b6106d9565b9050919050565b6000819050919050565b610a9683610a61565b610aaa610aa282610a83565b848454610a05565b825550505050565b600090565b610abf610ab2565b610aca818484610a8d565b505050565b5b81811015610aee57610ae3600082610ab7565b600181019050610ad0565b5050565b601f821115610b3357610b04816109d3565b610b0d846109e8565b81016020851015610b1c578190505b610b30610b28856109e8565b830182610acf565b50505b505050565b600082821c905092915050565b6000610b5660001984600802610b38565b1980831691505092915050565b6000610b6f8383610b45565b9150826002028217905092915050565b610b888261077a565b67ffffffffffffffff811115610ba157610ba0610565565b5b610bab82546109a2565b610bb6828285610af2565b600060209050601f831160018114610be95760008415610bd7578287015190505b610be18582610b63565b865550610c49565b601f198416610bf7866109d3565b60005b82811015610c1f57848901518255600182019150602085019450602081019050610bfa565b86831015610c3c5784890151610c38601f891682610b45565b8355505b6001600288020188555050505b505050505050565b600082825260208201905092915050565b6000610c6d8261077a565b610c778185610c51565b9350610c87818560208601610796565b610c9081610554565b840191505092915050565b6000604082019050610cb060008301856106e3565b8181036020830152610cc28184610c62565b90509392505050565b610cd481610759565b82525050565b60006060820190508181036000830152610cf48186610c62565b9050610d036020830185610ccb565b8181036040830152610d158184610c62565b9050949350505050565b60006040820190508181036000830152610d398185610c62565b9050610d4860208301846106e3565b9392505050565b7f4e487b7100000000000000000000000000000000000000000000000000000000600052605160045260246000fdfea264697066735822122070916e0fc061c3a4f730556e3ed0861961b7fad31eee67d4e3da5fd16a66d5ed64736f6c63430008130033",
  "linkReferences": {},
  "deployedLinkReferences": {}
}