{
  "_format": "hh-sol-artifact-1",
  "contractName": "EthEcho",
  "sourceName": "contracts/EthEcho.sol",
  "abi": [
    {
      "inputs": [],
      "stateMutability": "nonpayable",
      "type": "constructor"
    },
    {
      "anonymous": false,
      "inputs": [
        {
          "indexed": true,
          "internalType": "address",
          "name": "from",
          "type": "address"
        },
        {
          "indexed": false,
          "internalType": "uint256",
          "name": "timestamp",
          "type": "uint256"
        },
        {
          "indexed": false,
          "internalType": "string",
          "name": "message",
          "type": "string"
        }
      ],
      "name": "NewEcho",
      "type": "event"
    },
    {
      "inputs": [],
      "name": "getTotalEchoes",
      "outputs": [
        {
          "internalType": "uint256",
          "name": "",
          "type": "uint256"
        }
      ],
      "stateMutability": "view",
      "type": "function"
    },
    {
      "inputs": [],
      "name": "getlatestEcho",
      "outputs": [
        {
          "components": [
            {
              "internalType": "address",
              "name": "echoSender",
              "type": "address"
            },
            {
              "internalType": "string",
              "name": "message",
              "type": "string"
            },
            {
              "internalType": "uint256",
              "name": "timestamp",
              "type": "uint256"
            }
          ],
          "internalType": "struct EthEcho.Echo[]",
          "name": "",
          "type": "tuple[]"
        }
      ],
      "stateMutability": "view",
      "type": "function"
    },
    {
      "inputs": [
        {
          "internalType": "string",
          "name": "_message",
          "type": "string"
        }
      ],
      "name": "writeEcho",
      "outputs": [],
      "stateMutability": "nonpayable",
      "type": "function"
    }
  ],
  "bytecode": "0x60806040523480156200001157600080fd5b50620000586040518060400160405280601981526020017f4574684563686f202d20536d61727420436f6e747261637421000000000000008152506200005e60201b60201c565b62000258565b620000fe8160405160240162000075919062000205565b6040516020818303038152906040527f41304fac000000000000000000000000000000000000000000000000000000007bffffffffffffffffffffffffffffffffffffffffffffffffffffffff19166020820180517bffffffffffffffffffffffffffffffffffffffffffffffffffffffff83818316178352505050506200010160201b60201c565b50565b6200012781620001226200012a60201b620003aa176200014b60201b60201c565b60201c565b50565b60006a636f6e736f6c652e6c6f679050600080835160208501845afa505050565b6200015f60201b6200052b17819050919050565b6200016962000229565b565b600081519050919050565b600082825260208201905092915050565b60005b83811015620001a75780820151818401526020810190506200018a565b60008484015250505050565b6000601f19601f8301169050919050565b6000620001d1826200016b565b620001dd818562000176565b9350620001ef81856020860162000187565b620001fa81620001b3565b840191505092915050565b60006020820190508181036000830152620002218184620001c4565b905092915050565b7f4e487b7100000000000000000000000000000000000000000000000000000000600052605160045260246000fd5b610db380620002686000396000f3fe608060405234801561001057600080fd5b50600436106100405760003560e01c8062273bb91461004557806305eefb5714610063578063f972b3721461007f575b600080fd5b61004d61009d565b60405161005a9190610731565b60405180910390f35b61007d6004803603810190610078919061089c565b6101ee565b005b61008761035f565b60405161009491906108f4565b60405180910390f35b60606001805480602002602001604051908101604052809291908181526020016000905b828210156101e557838290600052602060002090600302016040518060600160405290816000820160009054906101000a900473ffffffffffffffffffffffffffffffffffffffff1673ffffffffffffffffffffffffffffffffffffffff1673ffffffffffffffffffffffffffffffffffffffff16815260200160018201805461014a9061093e565b80601f01602080910402602001604051908101604052809291908181526020018280546101769061093e565b80156101c35780601f10610198576101008083540402835291602001916101c3565b820191906000526020600020905b8154815290600101906020018083116101a657829003601f168201915b50505050508152602001600282015481525050815260200190600101906100c1565b50505050905090565b6001600080828254610200919061099e565b925050819055506102476040518060400160405280601781526020017f2573206563686f656420772f206d65737361676520257300000000000000000081525033836103cb565b600160405180606001604052803373ffffffffffffffffffffffffffffffffffffffff16815260200183815260200142815250908060018154018082558091505060019003906000526020600020906003020160009091909190915060008201518160000160006101000a81548173ffffffffffffffffffffffffffffffffffffffff021916908373ffffffffffffffffffffffffffffffffffffffff16021790555060208201518160010190816102ff9190610b7e565b506040820151816002015550503373ffffffffffffffffffffffffffffffffffffffff167fcc1768b2bb333c251e77c649cdb86a181eea2c913d04f3db035b7bdf1e2b7f454283604051610354929190610c9a565b60405180910390a250565b60006103a26040518060400160405280601881526020017f5765206861766520256420746f74616c206563686f657321000000000000000081525060005461046a565b600054905090565b60006a636f6e736f6c652e6c6f679050600080835160208501845afa505050565b6104658383836040516024016103e393929190610cd9565b6040516020818303038152906040527fe0e9ad4f000000000000000000000000000000000000000000000000000000007bffffffffffffffffffffffffffffffffffffffffffffffffffffffff19166020820180517bffffffffffffffffffffffffffffffffffffffffffffffffffffffff8381831617835250505050610506565b505050565b6105028282604051602401610480929190610d1e565b6040516020818303038152906040527fb60e72cc000000000000000000000000000000000000000000000000000000007bffffffffffffffffffffffffffffffffffffffffffffffffffffffff19166020820180517bffffffffffffffffffffffffffffffffffffffffffffffffffffffff8381831617835250505050610506565b5050565b61051d816105156103aa610520565b63ffffffff16565b50565b61052b819050919050565b610533610d4e565b565b600081519050919050565b600082825260208201905092915050565b6000819050602082019050919050565b600073ffffffffffffffffffffffffffffffffffffffff82169050919050565b600061058c82610561565b9050919050565b61059c81610581565b82525050565b600081519050919050565b600082825260208201905092915050565b60005b838110156105dc5780820151818401526020810190506105c1565b60008484015250505050565b6000601f19601f8301169050919050565b6000610604826105a2565b61060e81856105ad565b935061061e8185602086016105be565b610627816105e8565b840191505092915050565b6000819050919050565b61064581610632565b82525050565b60006060830160008301516106636000860182610593565b506020830151848203602086015261067b82826105f9565b9150506040830151610690604086018261063c565b508091505092915050565b60006106a7838361064b565b905092915050565b6000602082019050919050565b60006106c782610535565b6106d18185610540565b9350836020820285016106e385610551565b8060005b8581101561071f5784840389528151610700858261069b565b945061070b836106af565b925060208a019950506001810190506106e7565b50829750879550505050505092915050565b6000602082019050818103600083015261074b81846106bc565b905092915050565b6000604051905090565b600080fd5b600080fd5b600080fd5b600080fd5b7f4e487b7100000000000000000000000000000000000000000000000000000000600052604160045260246000fd5b6107a9826105e8565b810181811067ffffffffffffffff821117156107c8576107c7610771565b5b80604052505050565b60006107db610753565b90506107e782826107a0565b919050565b600067ffffffffffffffff82111561080757610806610771565b5b610810826105e8565b9050602081019050919050565b82818337600083830152505050565b600061083f61083a846107ec565b6107d1565b90508281526020810184848401111561085b5761085a61076c565b5b61086684828561081d565b509392505050565b600082601f83011261088357610882610767565b5b813561089384826020860161082c565b91505092915050565b6000602082840312156108b2576108b161075d565b5b600082013567ffffffffffffffff8111156108d0576108cf610762565b5b6108dc8482850161086e565b91505092915050565b6108ee81610632565b82525050565b600060208201905061090960008301846108e5565b92915050565b7f4e487b7100000000000000000000000000000000000000000000000000000000600052602260045260246000fd5b6000600282049050600182168061095657607f821691505b6020821081036109695761096861090f565b5b50919050565b7f4e487b7100000000000000000000000000000000000000000000000000000000600052601160045260246000fd5b60006109a982610632565b91506109b483610632565b92508282019050808211156109cc576109cb61096f565b5b92915050565b60008190508160005260206000209050919050565b60006020601f8301049050919050565b600082821b905092915050565b600060088302610a347fffffffffffffffffffffffffffffffffffffffffffffffffffffffffffffffff826109f7565b610a3e86836109f7565b95508019841693508086168417925050509392505050565b6000819050919050565b6000610a7b610a76610a7184610632565b610a56565b610632565b9050919050565b6000819050919050565b610a9583610a60565b610aa9610aa182610a82565b848454610a04565b825550505050565b600090565b610abe610ab1565b610ac9818484610a8c565b505050565b5b81811015610aed57610ae2600082610ab6565b600181019050610acf565b5050565b601f821115610b3257610b03816109d2565b610b0c846109e7565b81016020851015610b1b578190505b610b2f610b27856109e7565b830182610ace565b50505b505050565b600082821c905092915050565b6000610b5560001984600802610b37565b1980831691505092915050565b6000610b6e8383610b44565b9150826002028217905092915050565b610b87826105a2565b67ffffffffffffffff811115610ba057610b9f610771565b5b610baa825461093e565b610bb5828285610af1565b600060209050601f831160018114610be85760008415610bd6578287015190505b610be08582610b62565b865550610c48565b601f198416610bf6866109d2565b60005b82811015610c1e57848901518255600182019150602085019450602081019050610bf9565b86831015610c3b5784890151610c37601f891682610b44565b8355505b6001600288020188555050505b505050505050565b600082825260208201905092915050565b6000610c6c826105a2565b610c768185610c50565b9350610c868185602086016105be565b610c8f816105e8565b840191505092915050565b6000604082019050610caf60008301856108e5565b8181036020830152610cc18184610c61565b90509392505050565b610cd381610581565b82525050565b60006060820190508181036000830152610cf38186610c61565b9050610d026020830185610cca565b8181036040830152610d148184610c61565b9050949350505050565b60006040820190508181036000830152610d388185610c61565b9050610d4760208301846108e5565b9392505050565b7f4e487b7100000000000000000000000000000000000000000000000000000000600052605160045260246000fdfea26469706673582212205c5e8bc42285a78b4faeec5bbf954664124d209b66e218045ee85bcdbf80e69864736f6c63430008130033",
  "linkReferences": {},
  "deployedLinkReferences": {}
}